{
  "contractName": "MultiTransferToken",
  "abi": [
    {
      "constant": false,
      "inputs": [],
      "name": "director3Signature",
      "outputs": [
        {
          "name": "",
          "type": "bool"
        }
      ],
      "payable": false,
      "stateMutability": "nonpayable",
      "type": "function"
    },
    {
      "constant": false,
      "inputs": [
        {
          "name": "_spender",
          "type": "address"
        },
        {
          "name": "_value",
          "type": "uint256"
        }
      ],
      "name": "approve",
      "outputs": [
        {
          "name": "",
          "type": "bool"
        }
      ],
      "payable": false,
      "stateMutability": "nonpayable",
      "type": "function"
    },
    {
      "constant": true,
      "inputs": [],
      "name": "banker",
      "outputs": [
        {
          "name": "",
          "type": "address"
        }
      ],
      "payable": false,
      "stateMutability": "view",
      "type": "function"
    },
    {
      "constant": false,
      "inputs": [
        {
          "name": "_newDirector3",
          "type": "address"
        }
      ],
      "name": "transferDirector3",
      "outputs": [
        {
          "name": "",
          "type": "bool"
        }
      ],
      "payable": false,
      "stateMutability": "nonpayable",
      "type": "function"
    },
    {
      "constant": true,
      "inputs": [],
      "name": "totalSupply",
      "outputs": [
        {
          "name": "",
          "type": "uint256"
        }
      ],
      "payable": false,
      "stateMutability": "view",
      "type": "function"
    },
    {
      "constant": true,
      "inputs": [],
      "name": "director3",
      "outputs": [
        {
          "name": "",
          "type": "address"
        }
      ],
      "payable": false,
      "stateMutability": "view",
      "type": "function"
    },
    {
      "constant": false,
      "inputs": [
        {
          "name": "_from",
          "type": "address"
        },
        {
          "name": "_to",
          "type": "address"
        },
        {
          "name": "_value",
          "type": "uint256"
        }
      ],
      "name": "transferFrom",
      "outputs": [
        {
          "name": "",
          "type": "bool"
        }
      ],
      "payable": false,
      "stateMutability": "nonpayable",
      "type": "function"
    },
    {
      "constant": false,
      "inputs": [
        {
          "name": "_newDirector1",
          "type": "address"
        }
      ],
      "name": "transferDirector1",
      "outputs": [
        {
          "name": "",
          "type": "bool"
        }
      ],
      "payable": false,
      "stateMutability": "nonpayable",
      "type": "function"
    },
    {
      "constant": true,
      "inputs": [],
      "name": "director2_signature",
      "outputs": [
        {
          "name": "",
          "type": "bool"
        }
      ],
      "payable": false,
      "stateMutability": "view",
      "type": "function"
    },
    {
      "constant": false,
      "inputs": [],
      "name": "director2Signature",
      "outputs": [
        {
          "name": "",
          "type": "bool"
        }
      ],
      "payable": false,
      "stateMutability": "nonpayable",
      "type": "function"
    },
    {
      "constant": true,
      "inputs": [],
      "name": "director1_signature",
      "outputs": [
        {
          "name": "",
          "type": "bool"
        }
      ],
      "payable": false,
      "stateMutability": "view",
      "type": "function"
    },
    {
      "constant": true,
      "inputs": [],
      "name": "hidden_supervisor",
      "outputs": [
        {
          "name": "",
          "type": "address"
        }
      ],
      "payable": false,
      "stateMutability": "view",
      "type": "function"
    },
    {
      "constant": true,
      "inputs": [],
      "name": "supervisor",
      "outputs": [
        {
          "name": "",
          "type": "address"
        }
      ],
      "payable": false,
      "stateMutability": "view",
      "type": "function"
    },
    {
      "constant": false,
      "inputs": [],
      "name": "director1Signature",
      "outputs": [
        {
          "name": "",
          "type": "bool"
        }
      ],
      "payable": false,
      "stateMutability": "nonpayable",
      "type": "function"
    },
    {
      "constant": false,
      "inputs": [
        {
          "name": "_spender",
          "type": "address"
        },
        {
          "name": "_subtractedValue",
          "type": "uint256"
        }
      ],
      "name": "decreaseApproval",
      "outputs": [
        {
          "name": "",
          "type": "bool"
        }
      ],
      "payable": false,
      "stateMutability": "nonpayable",
      "type": "function"
    },
    {
      "constant": false,
      "inputs": [
        {
          "name": "_newSupervisor",
          "type": "address"
        }
      ],
      "name": "transferSupervisor",
      "outputs": [
        {
          "name": "",
          "type": "bool"
        }
      ],
      "payable": false,
      "stateMutability": "nonpayable",
      "type": "function"
    },
    {
      "constant": true,
      "inputs": [],
      "name": "director1",
      "outputs": [
        {
          "name": "",
          "type": "address"
        }
      ],
      "payable": false,
      "stateMutability": "view",
      "type": "function"
    },
    {
      "constant": true,
      "inputs": [
        {
          "name": "_owner",
          "type": "address"
        }
      ],
      "name": "balanceOf",
      "outputs": [
        {
          "name": "",
          "type": "uint256"
        }
      ],
      "payable": false,
      "stateMutability": "view",
      "type": "function"
    },
    {
      "constant": false,
      "inputs": [
        {
          "name": "_newHiddenSupervisor",
          "type": "address"
        }
      ],
      "name": "transferHiddenSupervisor",
      "outputs": [
        {
          "name": "",
          "type": "bool"
        }
      ],
      "payable": false,
      "stateMutability": "nonpayable",
      "type": "function"
    },
    {
      "constant": true,
      "inputs": [],
      "name": "owner",
      "outputs": [
        {
          "name": "",
          "type": "address"
        }
      ],
      "payable": false,
      "stateMutability": "view",
      "type": "function"
    },
    {
      "constant": true,
      "inputs": [],
      "name": "director3_signature",
      "outputs": [
        {
          "name": "",
          "type": "bool"
        }
      ],
      "payable": false,
      "stateMutability": "view",
      "type": "function"
    },
    {
      "constant": true,
      "inputs": [
        {
          "name": "",
          "type": "address"
        }
      ],
      "name": "operator",
      "outputs": [
        {
          "name": "",
          "type": "bool"
        }
      ],
      "payable": false,
      "stateMutability": "view",
      "type": "function"
    },
    {
      "constant": false,
      "inputs": [
        {
          "name": "_to",
          "type": "address"
        },
        {
          "name": "_value",
          "type": "uint256"
        }
      ],
      "name": "transfer",
      "outputs": [
        {
          "name": "",
          "type": "bool"
        }
      ],
      "payable": false,
      "stateMutability": "nonpayable",
      "type": "function"
    },
    {
      "constant": false,
      "inputs": [
        {
          "name": "_newOperator",
          "type": "address"
        }
      ],
      "name": "setOperator",
      "outputs": [
        {
          "name": "",
          "type": "bool"
        }
      ],
      "payable": false,
      "stateMutability": "nonpayable",
      "type": "function"
    },
    {
      "constant": true,
      "inputs": [],
      "name": "director2",
      "outputs": [
        {
          "name": "",
          "type": "address"
        }
      ],
      "payable": false,
      "stateMutability": "view",
      "type": "function"
    },
    {
      "constant": false,
      "inputs": [],
      "name": "SignatureInvalidity",
      "outputs": [
        {
          "name": "",
          "type": "bool"
        }
      ],
      "payable": false,
      "stateMutability": "nonpayable",
      "type": "function"
    },
    {
      "constant": false,
      "inputs": [
        {
          "name": "_spender",
          "type": "address"
        },
        {
          "name": "_addedValue",
          "type": "uint256"
        }
      ],
      "name": "increaseApproval",
      "outputs": [
        {
          "name": "",
          "type": "bool"
        }
      ],
      "payable": false,
      "stateMutability": "nonpayable",
      "type": "function"
    },
    {
      "constant": true,
      "inputs": [
        {
          "name": "_owner",
          "type": "address"
        },
        {
          "name": "_spender",
          "type": "address"
        }
      ],
      "name": "allowance",
      "outputs": [
        {
          "name": "",
          "type": "uint256"
        }
      ],
      "payable": false,
      "stateMutability": "view",
      "type": "function"
    },
    {
      "constant": false,
      "inputs": [
        {
          "name": "_newBanker",
          "type": "address"
        }
      ],
      "name": "transferBankOwner",
      "outputs": [
        {
          "name": "",
          "type": "bool"
        }
      ],
      "payable": false,
      "stateMutability": "nonpayable",
      "type": "function"
    },
    {
      "constant": false,
      "inputs": [
        {
          "name": "_newOwner",
          "type": "address"
        }
      ],
      "name": "transferOwnership",
      "outputs": [
        {
          "name": "",
          "type": "bool"
        }
      ],
      "payable": false,
      "stateMutability": "nonpayable",
      "type": "function"
    },
    {
      "constant": false,
      "inputs": [
        {
          "name": "_toDeleteOperator",
          "type": "address"
        }
      ],
      "name": "disableOperator",
      "outputs": [
        {
          "name": "",
          "type": "bool"
        }
      ],
      "payable": false,
      "stateMutability": "nonpayable",
      "type": "function"
    },
    {
      "constant": false,
      "inputs": [
        {
          "name": "_newDirector2",
          "type": "address"
        }
      ],
      "name": "transferDirector2",
      "outputs": [
        {
          "name": "",
          "type": "bool"
        }
      ],
      "payable": false,
      "stateMutability": "nonpayable",
      "type": "function"
    },
    {
      "anonymous": false,
      "inputs": [
        {
          "indexed": true,
          "name": "previousHiddenSupervisor",
          "type": "address"
        },
        {
          "indexed": true,
          "name": "newHiddenSupervisor",
          "type": "address"
        }
      ],
      "name": "HiddenSupervisorTransferred",
      "type": "event"
    },
    {
      "anonymous": false,
      "inputs": [
        {
          "indexed": true,
          "name": "previousSupervisor",
          "type": "address"
        },
        {
          "indexed": true,
          "name": "newSupervisor",
          "type": "address"
        }
      ],
      "name": "SupervisorTransferred",
      "type": "event"
    },
    {
      "anonymous": false,
      "inputs": [
        {
          "indexed": true,
          "name": "previousOwner",
          "type": "address"
        },
        {
          "indexed": true,
          "name": "newOwner",
          "type": "address"
        }
      ],
      "name": "OwnershipTransferred",
      "type": "event"
    },
    {
      "anonymous": false,
      "inputs": [
        {
          "indexed": true,
          "name": "previousBanker",
          "type": "address"
        },
        {
          "indexed": true,
          "name": "newBanker",
          "type": "address"
        }
      ],
      "name": "BankerTransferred",
      "type": "event"
    },
    {
      "anonymous": false,
      "inputs": [
        {
          "indexed": true,
          "name": "previousDirector1",
          "type": "address"
        },
        {
          "indexed": true,
          "name": "newDirector1",
          "type": "address"
        }
      ],
      "name": "Director1Transferred",
      "type": "event"
    },
    {
      "anonymous": false,
      "inputs": [
        {
          "indexed": true,
          "name": "previousDirector2",
          "type": "address"
        },
        {
          "indexed": true,
          "name": "newDirector2",
          "type": "address"
        }
      ],
      "name": "Director2Transferred",
      "type": "event"
    },
    {
      "anonymous": false,
      "inputs": [
        {
          "indexed": true,
          "name": "previousDirector3",
          "type": "address"
        },
        {
          "indexed": true,
          "name": "newDirector3",
          "type": "address"
        }
      ],
      "name": "Director3Transferred",
      "type": "event"
    },
    {
      "anonymous": false,
      "inputs": [
        {
          "indexed": true,
          "name": "_newOperator",
          "type": "address"
        }
      ],
      "name": "OperatorSetting",
      "type": "event"
    },
    {
      "anonymous": false,
      "inputs": [
        {
          "indexed": true,
          "name": "_newOperator",
          "type": "address"
        }
      ],
      "name": "OperatorDisable",
      "type": "event"
    },
    {
      "anonymous": false,
      "inputs": [
        {
          "indexed": false,
          "name": "_from",
          "type": "address"
        },
        {
          "indexed": false,
          "name": "_timestamp",
          "type": "uint256"
        }
      ],
      "name": "ClearedCLevelSignature",
      "type": "event"
    },
    {
      "anonymous": false,
      "inputs": [
        {
          "indexed": true,
          "name": "owner",
          "type": "address"
        },
        {
          "indexed": true,
          "name": "spender",
          "type": "address"
        },
        {
          "indexed": false,
          "name": "value",
          "type": "uint256"
        }
      ],
      "name": "Approval",
      "type": "event"
    },
    {
      "anonymous": false,
      "inputs": [
        {
          "indexed": true,
          "name": "from",
          "type": "address"
        },
        {
          "indexed": true,
          "name": "to",
          "type": "address"
        },
        {
          "indexed": false,
          "name": "value",
          "type": "uint256"
        }
      ],
      "name": "Transfer",
      "type": "event"
    },
    {
      "constant": false,
      "inputs": [
        {
          "name": "_to",
          "type": "address[]"
        },
        {
          "name": "_amount",
          "type": "uint256[]"
        }
      ],
      "name": "multiTransfer",
      "outputs": [
        {
          "name": "",
          "type": "bool"
        }
      ],
      "payable": false,
      "stateMutability": "nonpayable",
      "type": "function"
    }
  ],
  "bytecode": "0x608060405233600260006101000a81548173ffffffffffffffffffffffffffffffffffffffff021916908373ffffffffffffffffffffffffffffffffffffffff16021790555033600360006101000a81548173ffffffffffffffffffffffffffffffffffffffff021916908373ffffffffffffffffffffffffffffffffffffffff16021790555033600460006101000a81548173ffffffffffffffffffffffffffffffffffffffff021916908373ffffffffffffffffffffffffffffffffffffffff16021790555033600560006101000a81548173ffffffffffffffffffffffffffffffffffffffff021916908373ffffffffffffffffffffffffffffffffffffffff16021790555033600660006101000a81548173ffffffffffffffffffffffffffffffffffffffff021916908373ffffffffffffffffffffffffffffffffffffffff16021790555033600760006101000a81548173ffffffffffffffffffffffffffffffffffffffff021916908373ffffffffffffffffffffffffffffffffffffffff16021790555033600860006101000a81548173ffffffffffffffffffffffffffffffffffffffff021916908373ffffffffffffffffffffffffffffffffffffffff160217905550620001e4620001ea640100000000026401000000009004565b620002a8565b6000600a60006101000a81548160ff0219169083151502179055506000600a60016101000a81548160ff0219169083151502179055506000600a60026101000a81548160ff0219169083151502179055507fb415c45be42cfd6b48bb8d12979c0ad78d8b2b5c59dc5cf2099aaa786cfc587c3342604051808373ffffffffffffffffffffffffffffffffffffffff1673ffffffffffffffffffffffffffffffffffffffff1681526020018281526020019250505060405180910390a1565b61499180620002b86000396000f3006080604052600436106101a0576000357c0100000000000000000000000000000000000000000000000000000000900463ffffffff1680622e087d146101a5578063095ea7b3146101d45780630ab9db5b146102395780630f1d81e31461029057806318160ddd146102eb5780631e89d5451461031657806322ede3f0146103d757806323b872dd1461042e5780632e92ceea146104b35780633e9d453c1461050e5780634beacf281461053d5780634fc596281461056c5780634fced3b71461059b57806356e4b68b146105f25780636165add91461064957806366188463146106785780636ca605a5146106dd5780636d5de9581461073857806370a082311461078f57806388e83eaa146107e65780638da5cb5b1461084157806397bc745c146108985780639a307391146108c7578063a9059cbb14610922578063b3ab15fb14610987578063bed8edd3146109e2578063c0a42d9114610a39578063d73dd62314610a68578063dd62ed3e14610acd578063ef25ba2c14610b44578063f2fde38b14610b9f578063f56408ed14610bfa578063fa74d73414610c55575b600080fd5b3480156101b157600080fd5b506101ba610cb0565b604051808215151515815260200191505060405180910390f35b3480156101e057600080fd5b5061021f600480360381019080803573ffffffffffffffffffffffffffffffffffffffff16906020019092919080359060200190929190505050610d30565b604051808215151515815260200191505060405180910390f35b34801561024557600080fd5b5061024e610e22565b604051808273ffffffffffffffffffffffffffffffffffffffff1673ffffffffffffffffffffffffffffffffffffffff16815260200191505060405180910390f35b34801561029c57600080fd5b506102d1600480360381019080803573ffffffffffffffffffffffffffffffffffffffff169060200190929190505050610e48565b604051808215151515815260200191505060405180910390f35b3480156102f757600080fd5b5061030061129d565b6040518082815260200191505060405180910390f35b34801561032257600080fd5b506103bd60048036038101908080359060200190820180359060200190808060200260200160405190810160405280939291908181526020018383602002808284378201915050505050509192919290803590602001908201803590602001908080602002602001604051908101604052809392919081815260200183836020028082843782019150505050505091929192905050506112a7565b604051808215151515815260200191505060405180910390f35b3480156103e357600080fd5b506103ec6117e1565b604051808273ffffffffffffffffffffffffffffffffffffffff1673ffffffffffffffffffffffffffffffffffffffff16815260200191505060405180910390f35b34801561043a57600080fd5b50610499600480360381019080803573ffffffffffffffffffffffffffffffffffffffff169060200190929190803573ffffffffffffffffffffffffffffffffffffffff16906020019092919080359060200190929190505050611807565b604051808215151515815260200191505060405180910390f35b3480156104bf57600080fd5b506104f4600480360381019080803573ffffffffffffffffffffffffffffffffffffffff169060200190929190505050611d71565b604051808215151515815260200191505060405180910390f35b34801561051a57600080fd5b506105236121c6565b604051808215151515815260200191505060405180910390f35b34801561054957600080fd5b506105526121d9565b604051808215151515815260200191505060405180910390f35b34801561057857600080fd5b50610581612259565b604051808215151515815260200191505060405180910390f35b3480156105a757600080fd5b506105b061226c565b604051808273ffffffffffffffffffffffffffffffffffffffff1673ffffffffffffffffffffffffffffffffffffffff16815260200191505060405180910390f35b3480156105fe57600080fd5b50610607612292565b604051808273ffffffffffffffffffffffffffffffffffffffff1673ffffffffffffffffffffffffffffffffffffffff16815260200191505060405180910390f35b34801561065557600080fd5b5061065e6122b8565b604051808215151515815260200191505060405180910390f35b34801561068457600080fd5b506106c3600480360381019080803573ffffffffffffffffffffffffffffffffffffffff16906020019092919080359060200190929190505050612338565b604051808215151515815260200191505060405180910390f35b3480156106e957600080fd5b5061071e600480360381019080803573ffffffffffffffffffffffffffffffffffffffff1690602001909291905050506125c9565b604051808215151515815260200191505060405180910390f35b34801561074457600080fd5b5061074d612a16565b604051808273ffffffffffffffffffffffffffffffffffffffff1673ffffffffffffffffffffffffffffffffffffffff16815260200191505060405180910390f35b34801561079b57600080fd5b506107d0600480360381019080803573ffffffffffffffffffffffffffffffffffffffff169060200190929190505050612a3c565b6040518082815260200191505060405180910390f35b3480156107f257600080fd5b50610827600480360381019080803573ffffffffffffffffffffffffffffffffffffffff169060200190929190505050612a84565b604051808215151515815260200191505060405180910390f35b34801561084d57600080fd5b50610856612ed1565b604051808273ffffffffffffffffffffffffffffffffffffffff1673ffffffffffffffffffffffffffffffffffffffff16815260200191505060405180910390f35b3480156108a457600080fd5b506108ad612ef7565b604051808215151515815260200191505060405180910390f35b3480156108d357600080fd5b50610908600480360381019080803573ffffffffffffffffffffffffffffffffffffffff169060200190929190505050612f0a565b604051808215151515815260200191505060405180910390f35b34801561092e57600080fd5b5061096d600480360381019080803573ffffffffffffffffffffffffffffffffffffffff16906020019092919080359060200190929190505050612f2a565b604051808215151515815260200191505060405180910390f35b34801561099357600080fd5b506109c8600480360381019080803573ffffffffffffffffffffffffffffffffffffffff16906020019092919050505061321b565b604051808215151515815260200191505060405180910390f35b3480156109ee57600080fd5b506109f7613646565b604051808273ffffffffffffffffffffffffffffffffffffffff1673ffffffffffffffffffffffffffffffffffffffff16815260200191505060405180910390f35b348015610a4557600080fd5b50610a4e61366c565b604051808215151515815260200191505060405180910390f35b348015610a7457600080fd5b50610ab3600480360381019080803573ffffffffffffffffffffffffffffffffffffffff16906020019092919080359060200190929190505050613734565b604051808215151515815260200191505060405180910390f35b348015610ad957600080fd5b50610b2e600480360381019080803573ffffffffffffffffffffffffffffffffffffffff169060200190929190803573ffffffffffffffffffffffffffffffffffffffff169060200190929190505050613930565b6040518082815260200191505060405180910390f35b348015610b5057600080fd5b50610b85600480360381019080803573ffffffffffffffffffffffffffffffffffffffff1690602001909291905050506139b7565b604051808215151515815260200191505060405180910390f35b348015610bab57600080fd5b50610be0600480360381019080803573ffffffffffffffffffffffffffffffffffffffff169060200190929190505050613e04565b604051808215151515815260200191505060405180910390f35b348015610c0657600080fd5b50610c3b600480360381019080803573ffffffffffffffffffffffffffffffffffffffff169060200190929190505050614251565b604051808215151515815260200191505060405180910390f35b348015610c6157600080fd5b50610c96600480360381019080803573ffffffffffffffffffffffffffffffffffffffff16906020019092919050505061441b565b604051808215151515815260200191505060405180910390f35b6000600860009054906101000a900473ffffffffffffffffffffffffffffffffffffffff1673ffffffffffffffffffffffffffffffffffffffff163373ffffffffffffffffffffffffffffffffffffffff16141515610d0e57600080fd5b6001600a60026101000a81548160ff0219169083151502179055506001905090565b600081600b60003373ffffffffffffffffffffffffffffffffffffffff1673ffffffffffffffffffffffffffffffffffffffff16815260200190815260200160002060008573ffffffffffffffffffffffffffffffffffffffff1673ffffffffffffffffffffffffffffffffffffffff168152602001908152602001600020819055508273ffffffffffffffffffffffffffffffffffffffff163373ffffffffffffffffffffffffffffffffffffffff167f8c5be1e5ebec7d5bd14f71427d1e84f3dd0314c0f7b2291e5b200ac8c7c3b925846040518082815260200191505060405180910390a36001905092915050565b600560009054906101000a900473ffffffffffffffffffffffffffffffffffffffff1681565b6000600360009054906101000a900473ffffffffffffffffffffffffffffffffffffffff1673ffffffffffffffffffffffffffffffffffffffff163373ffffffffffffffffffffffffffffffffffffffff16141515610ea657600080fd5b81600073ffffffffffffffffffffffffffffffffffffffff168173ffffffffffffffffffffffffffffffffffffffff1614151515610ee357600080fd5b600260009054906101000a900473ffffffffffffffffffffffffffffffffffffffff1673ffffffffffffffffffffffffffffffffffffffff168173ffffffffffffffffffffffffffffffffffffffff1614151515610f4057600080fd5b600360009054906101000a900473ffffffffffffffffffffffffffffffffffffffff1673ffffffffffffffffffffffffffffffffffffffff168173ffffffffffffffffffffffffffffffffffffffff1614151515610f9d57600080fd5b600460009054906101000a900473ffffffffffffffffffffffffffffffffffffffff1673ffffffffffffffffffffffffffffffffffffffff168173ffffffffffffffffffffffffffffffffffffffff1614151515610ffa57600080fd5b600560009054906101000a900473ffffffffffffffffffffffffffffffffffffffff1673ffffffffffffffffffffffffffffffffffffffff168173ffffffffffffffffffffffffffffffffffffffff161415151561105757600080fd5b600660009054906101000a900473ffffffffffffffffffffffffffffffffffffffff1673ffffffffffffffffffffffffffffffffffffffff168173ffffffffffffffffffffffffffffffffffffffff16141515156110b457600080fd5b600760009054906101000a900473ffffffffffffffffffffffffffffffffffffffff1673ffffffffffffffffffffffffffffffffffffffff168173ffffffffffffffffffffffffffffffffffffffff161415151561111157600080fd5b600860009054906101000a900473ffffffffffffffffffffffffffffffffffffffff1673ffffffffffffffffffffffffffffffffffffffff168173ffffffffffffffffffffffffffffffffffffffff161415151561116e57600080fd5b60011515600960008373ffffffffffffffffffffffffffffffffffffffff1673ffffffffffffffffffffffffffffffffffffffff16815260200190815260200160002060009054906101000a900460ff161515141515156111ce57600080fd5b6111d6614870565b8273ffffffffffffffffffffffffffffffffffffffff16600860009054906101000a900473ffffffffffffffffffffffffffffffffffffffff1673ffffffffffffffffffffffffffffffffffffffff167f104bcc062b4af999127d3973b68f3e262c0f449b096c7b7f55e1c4505923e89060405160405180910390a382600860006101000a81548173ffffffffffffffffffffffffffffffffffffffff021916908373ffffffffffffffffffffffffffffffffffffffff1602179055506001915050919050565b6000600154905090565b6000806000600460009054906101000a900473ffffffffffffffffffffffffffffffffffffffff1673ffffffffffffffffffffffffffffffffffffffff163373ffffffffffffffffffffffffffffffffffffffff1614151561130857600080fd5b8351855114151561131857600080fd5b600360009054906101000a900473ffffffffffffffffffffffffffffffffffffffff1673ffffffffffffffffffffffffffffffffffffffff163373ffffffffffffffffffffffffffffffffffffffff161415151561137557600080fd5b600260009054906101000a900473ffffffffffffffffffffffffffffffffffffffff1673ffffffffffffffffffffffffffffffffffffffff163373ffffffffffffffffffffffffffffffffffffffff16141515156113d257600080fd5b60009050600091505b845182101561155857600073ffffffffffffffffffffffffffffffffffffffff16858381518110151561140a57fe5b9060200190602002015173ffffffffffffffffffffffffffffffffffffffff161415151561143757600080fd5b600360009054906101000a900473ffffffffffffffffffffffffffffffffffffffff1673ffffffffffffffffffffffffffffffffffffffff16858381518110151561147e57fe5b9060200190602002015173ffffffffffffffffffffffffffffffffffffffff16141515156114ab57600080fd5b600260009054906101000a900473ffffffffffffffffffffffffffffffffffffffff1673ffffffffffffffffffffffffffffffffffffffff1685838151811015156114f257fe5b9060200190602002015173ffffffffffffffffffffffffffffffffffffffff161415151561151f57600080fd5b611549848381518110151561153057fe5b906020019060200201518261492e90919063ffffffff16565b905081806001019250506113db565b6000803373ffffffffffffffffffffffffffffffffffffffff1673ffffffffffffffffffffffffffffffffffffffff1681526020019081526020016000205481111515156115a557600080fd5b600091505b84518210156117d55761161b84838151811015156115c457fe5b906020019060200201516000803373ffffffffffffffffffffffffffffffffffffffff1673ffffffffffffffffffffffffffffffffffffffff1681526020019081526020016000205461494c90919063ffffffff16565b6000803373ffffffffffffffffffffffffffffffffffffffff1673ffffffffffffffffffffffffffffffffffffffff168152602001908152602001600020819055506116dc848381518110151561166e57fe5b90602001906020020151600080888681518110151561168957fe5b9060200190602002015173ffffffffffffffffffffffffffffffffffffffff1673ffffffffffffffffffffffffffffffffffffffff1681526020019081526020016000205461492e90919063ffffffff16565b60008087858151811015156116ed57fe5b9060200190602002015173ffffffffffffffffffffffffffffffffffffffff1673ffffffffffffffffffffffffffffffffffffffff16815260200190815260200160002081905550848281518110151561174357fe5b9060200190602002015173ffffffffffffffffffffffffffffffffffffffff163373ffffffffffffffffffffffffffffffffffffffff167fddf252ad1be2c89b69c2b068fc378daa952ba7f163c4a11628f55a4df523b3ef86858151811015156117a957fe5b906020019060200201516040518082815260200191505060405180910390a381806001019250506115aa565b60019250505092915050565b600860009054906101000a900473ffffffffffffffffffffffffffffffffffffffff1681565b60008073ffffffffffffffffffffffffffffffffffffffff168373ffffffffffffffffffffffffffffffffffffffff161415151561184457600080fd5b600360009054906101000a900473ffffffffffffffffffffffffffffffffffffffff1673ffffffffffffffffffffffffffffffffffffffff168373ffffffffffffffffffffffffffffffffffffffff16141515156118a157600080fd5b600260009054906101000a900473ffffffffffffffffffffffffffffffffffffffff1673ffffffffffffffffffffffffffffffffffffffff168373ffffffffffffffffffffffffffffffffffffffff16141515156118fe57600080fd5b600073ffffffffffffffffffffffffffffffffffffffff168473ffffffffffffffffffffffffffffffffffffffff161415151561193a57600080fd5b600360009054906101000a900473ffffffffffffffffffffffffffffffffffffffff1673ffffffffffffffffffffffffffffffffffffffff168473ffffffffffffffffffffffffffffffffffffffff161415151561199757600080fd5b600260009054906101000a900473ffffffffffffffffffffffffffffffffffffffff1673ffffffffffffffffffffffffffffffffffffffff168473ffffffffffffffffffffffffffffffffffffffff16141515156119f457600080fd5b6000808573ffffffffffffffffffffffffffffffffffffffff1673ffffffffffffffffffffffffffffffffffffffff168152602001908152602001600020548211151515611a4157600080fd5b600b60008573ffffffffffffffffffffffffffffffffffffffff1673ffffffffffffffffffffffffffffffffffffffff16815260200190815260200160002060003373ffffffffffffffffffffffffffffffffffffffff1673ffffffffffffffffffffffffffffffffffffffff168152602001908152602001600020548211151515611acc57600080fd5b611b1d826000808773ffffffffffffffffffffffffffffffffffffffff1673ffffffffffffffffffffffffffffffffffffffff1681526020019081526020016000205461494c90919063ffffffff16565b6000808673ffffffffffffffffffffffffffffffffffffffff1673ffffffffffffffffffffffffffffffffffffffff16815260200190815260200160002081905550611bb0826000808673ffffffffffffffffffffffffffffffffffffffff1673ffffffffffffffffffffffffffffffffffffffff1681526020019081526020016000205461492e90919063ffffffff16565b6000808573ffffffffffffffffffffffffffffffffffffffff1673ffffffffffffffffffffffffffffffffffffffff16815260200190815260200160002081905550611c8182600b60008773ffffffffffffffffffffffffffffffffffffffff1673ffffffffffffffffffffffffffffffffffffffff16815260200190815260200160002060003373ffffffffffffffffffffffffffffffffffffffff1673ffffffffffffffffffffffffffffffffffffffff1681526020019081526020016000205461494c90919063ffffffff16565b600b60008673ffffffffffffffffffffffffffffffffffffffff1673ffffffffffffffffffffffffffffffffffffffff16815260200190815260200160002060003373ffffffffffffffffffffffffffffffffffffffff1673ffffffffffffffffffffffffffffffffffffffff168152602001908152602001600020819055508273ffffffffffffffffffffffffffffffffffffffff168473ffffffffffffffffffffffffffffffffffffffff167fddf252ad1be2c89b69c2b068fc378daa952ba7f163c4a11628f55a4df523b3ef846040518082815260200191505060405180910390a3600190509392505050565b6000600360009054906101000a900473ffffffffffffffffffffffffffffffffffffffff1673ffffffffffffffffffffffffffffffffffffffff163373ffffffffffffffffffffffffffffffffffffffff16141515611dcf57600080fd5b81600073ffffffffffffffffffffffffffffffffffffffff168173ffffffffffffffffffffffffffffffffffffffff1614151515611e0c57600080fd5b600260009054906101000a900473ffffffffffffffffffffffffffffffffffffffff1673ffffffffffffffffffffffffffffffffffffffff168173ffffffffffffffffffffffffffffffffffffffff1614151515611e6957600080fd5b600360009054906101000a900473ffffffffffffffffffffffffffffffffffffffff1673ffffffffffffffffffffffffffffffffffffffff168173ffffffffffffffffffffffffffffffffffffffff1614151515611ec657600080fd5b600460009054906101000a900473ffffffffffffffffffffffffffffffffffffffff1673ffffffffffffffffffffffffffffffffffffffff168173ffffffffffffffffffffffffffffffffffffffff1614151515611f2357600080fd5b600560009054906101000a900473ffffffffffffffffffffffffffffffffffffffff1673ffffffffffffffffffffffffffffffffffffffff168173ffffffffffffffffffffffffffffffffffffffff1614151515611f8057600080fd5b600660009054906101000a900473ffffffffffffffffffffffffffffffffffffffff1673ffffffffffffffffffffffffffffffffffffffff168173ffffffffffffffffffffffffffffffffffffffff1614151515611fdd57600080fd5b600760009054906101000a900473ffffffffffffffffffffffffffffffffffffffff1673ffffffffffffffffffffffffffffffffffffffff168173ffffffffffffffffffffffffffffffffffffffff161415151561203a57600080fd5b600860009054906101000a900473ffffffffffffffffffffffffffffffffffffffff1673ffffffffffffffffffffffffffffffffffffffff168173ffffffffffffffffffffffffffffffffffffffff161415151561209757600080fd5b60011515600960008373ffffffffffffffffffffffffffffffffffffffff1673ffffffffffffffffffffffffffffffffffffffff16815260200190815260200160002060009054906101000a900460ff161515141515156120f757600080fd5b6120ff614870565b8273ffffffffffffffffffffffffffffffffffffffff16600660009054906101000a900473ffffffffffffffffffffffffffffffffffffffff1673ffffffffffffffffffffffffffffffffffffffff167fbfe80d0ecd2b2e62b0dc665e475fce69c67c530da627c35e4a9411f11df9dc6060405160405180910390a382600660006101000a81548173ffffffffffffffffffffffffffffffffffffffff021916908373ffffffffffffffffffffffffffffffffffffffff1602179055506001915050919050565b600a60019054906101000a900460ff1681565b6000600760009054906101000a900473ffffffffffffffffffffffffffffffffffffffff1673ffffffffffffffffffffffffffffffffffffffff163373ffffffffffffffffffffffffffffffffffffffff1614151561223757600080fd5b6001600a60016101000a81548160ff0219169083151502179055506001905090565b600a60009054906101000a900460ff1681565b600260009054906101000a900473ffffffffffffffffffffffffffffffffffffffff1681565b600360009054906101000a900473ffffffffffffffffffffffffffffffffffffffff1681565b6000600660009054906101000a900473ffffffffffffffffffffffffffffffffffffffff1673ffffffffffffffffffffffffffffffffffffffff163373ffffffffffffffffffffffffffffffffffffffff1614151561231657600080fd5b6001600a60006101000a81548160ff0219169083151502179055506001905090565b600080600b60003373ffffffffffffffffffffffffffffffffffffffff1673ffffffffffffffffffffffffffffffffffffffff16815260200190815260200160002060008573ffffffffffffffffffffffffffffffffffffffff1673ffffffffffffffffffffffffffffffffffffffff16815260200190815260200160002054905080831115612449576000600b60003373ffffffffffffffffffffffffffffffffffffffff1673ffffffffffffffffffffffffffffffffffffffff16815260200190815260200160002060008673ffffffffffffffffffffffffffffffffffffffff1673ffffffffffffffffffffffffffffffffffffffff168152602001908152602001600020819055506124dd565b61245c838261494c90919063ffffffff16565b600b60003373ffffffffffffffffffffffffffffffffffffffff1673ffffffffffffffffffffffffffffffffffffffff16815260200190815260200160002060008673ffffffffffffffffffffffffffffffffffffffff1673ffffffffffffffffffffffffffffffffffffffff168152602001908152602001600020819055505b8373ffffffffffffffffffffffffffffffffffffffff163373ffffffffffffffffffffffffffffffffffffffff167f8c5be1e5ebec7d5bd14f71427d1e84f3dd0314c0f7b2291e5b200ac8c7c3b925600b60003373ffffffffffffffffffffffffffffffffffffffff1673ffffffffffffffffffffffffffffffffffffffff16815260200190815260200160002060008873ffffffffffffffffffffffffffffffffffffffff1673ffffffffffffffffffffffffffffffffffffffff168152602001908152602001600020546040518082815260200191505060405180910390a3600191505092915050565b6000600260009054906101000a900473ffffffffffffffffffffffffffffffffffffffff1673ffffffffffffffffffffffffffffffffffffffff163373ffffffffffffffffffffffffffffffffffffffff1614151561262757600080fd5b81600073ffffffffffffffffffffffffffffffffffffffff168173ffffffffffffffffffffffffffffffffffffffff161415151561266457600080fd5b600260009054906101000a900473ffffffffffffffffffffffffffffffffffffffff1673ffffffffffffffffffffffffffffffffffffffff168173ffffffffffffffffffffffffffffffffffffffff16141515156126c157600080fd5b600360009054906101000a900473ffffffffffffffffffffffffffffffffffffffff1673ffffffffffffffffffffffffffffffffffffffff168173ffffffffffffffffffffffffffffffffffffffff161415151561271e57600080fd5b600460009054906101000a900473ffffffffffffffffffffffffffffffffffffffff1673ffffffffffffffffffffffffffffffffffffffff168173ffffffffffffffffffffffffffffffffffffffff161415151561277b57600080fd5b600560009054906101000a900473ffffffffffffffffffffffffffffffffffffffff1673ffffffffffffffffffffffffffffffffffffffff168173ffffffffffffffffffffffffffffffffffffffff16141515156127d857600080fd5b600660009054906101000a900473ffffffffffffffffffffffffffffffffffffffff1673ffffffffffffffffffffffffffffffffffffffff168173ffffffffffffffffffffffffffffffffffffffff161415151561283557600080fd5b600760009054906101000a900473ffffffffffffffffffffffffffffffffffffffff1673ffffffffffffffffffffffffffffffffffffffff168173ffffffffffffffffffffffffffffffffffffffff161415151561289257600080fd5b600860009054906101000a900473ffffffffffffffffffffffffffffffffffffffff1673ffffffffffffffffffffffffffffffffffffffff168173ffffffffffffffffffffffffffffffffffffffff16141515156128ef57600080fd5b60011515600960008373ffffffffffffffffffffffffffffffffffffffff1673ffffffffffffffffffffffffffffffffffffffff16815260200190815260200160002060009054906101000a900460ff1615151415151561294f57600080fd5b8273ffffffffffffffffffffffffffffffffffffffff16600360009054906101000a900473ffffffffffffffffffffffffffffffffffffffff1673ffffffffffffffffffffffffffffffffffffffff167f97c131cf04cce7bc78600a05a4bc814e42b202fd53f9ec3e71a589f6f235d70c60405160405180910390a382600360006101000a81548173ffffffffffffffffffffffffffffffffffffffff021916908373ffffffffffffffffffffffffffffffffffffffff1602179055506001915050919050565b600660009054906101000a900473ffffffffffffffffffffffffffffffffffffffff1681565b60008060008373ffffffffffffffffffffffffffffffffffffffff1673ffffffffffffffffffffffffffffffffffffffff168152602001908152602001600020549050919050565b6000600260009054906101000a900473ffffffffffffffffffffffffffffffffffffffff1673ffffffffffffffffffffffffffffffffffffffff163373ffffffffffffffffffffffffffffffffffffffff16141515612ae257600080fd5b81600073ffffffffffffffffffffffffffffffffffffffff168173ffffffffffffffffffffffffffffffffffffffff1614151515612b1f57600080fd5b600260009054906101000a900473ffffffffffffffffffffffffffffffffffffffff1673ffffffffffffffffffffffffffffffffffffffff168173ffffffffffffffffffffffffffffffffffffffff1614151515612b7c57600080fd5b600360009054906101000a900473ffffffffffffffffffffffffffffffffffffffff1673ffffffffffffffffffffffffffffffffffffffff168173ffffffffffffffffffffffffffffffffffffffff1614151515612bd957600080fd5b600460009054906101000a900473ffffffffffffffffffffffffffffffffffffffff1673ffffffffffffffffffffffffffffffffffffffff168173ffffffffffffffffffffffffffffffffffffffff1614151515612c3657600080fd5b600560009054906101000a900473ffffffffffffffffffffffffffffffffffffffff1673ffffffffffffffffffffffffffffffffffffffff168173ffffffffffffffffffffffffffffffffffffffff1614151515612c9357600080fd5b600660009054906101000a900473ffffffffffffffffffffffffffffffffffffffff1673ffffffffffffffffffffffffffffffffffffffff168173ffffffffffffffffffffffffffffffffffffffff1614151515612cf057600080fd5b600760009054906101000a900473ffffffffffffffffffffffffffffffffffffffff1673ffffffffffffffffffffffffffffffffffffffff168173ffffffffffffffffffffffffffffffffffffffff1614151515612d4d57600080fd5b600860009054906101000a900473ffffffffffffffffffffffffffffffffffffffff1673ffffffffffffffffffffffffffffffffffffffff168173ffffffffffffffffffffffffffffffffffffffff1614151515612daa57600080fd5b60011515600960008373ffffffffffffffffffffffffffffffffffffffff1673ffffffffffffffffffffffffffffffffffffffff16815260200190815260200160002060009054906101000a900460ff16151514151515612e0a57600080fd5b8273ffffffffffffffffffffffffffffffffffffffff16600260009054906101000a900473ffffffffffffffffffffffffffffffffffffffff1673ffffffffffffffffffffffffffffffffffffffff167f6a18ecab429a7688211508173b4866225ed93cdfb55b120002c6fff1be6893b060405160405180910390a382600260006101000a81548173ffffffffffffffffffffffffffffffffffffffff021916908373ffffffffffffffffffffffffffffffffffffffff1602179055506001915050919050565b600460009054906101000a900473ffffffffffffffffffffffffffffffffffffffff1681565b600a60029054906101000a900460ff1681565b60096020528060005260406000206000915054906101000a900460ff1681565b60008073ffffffffffffffffffffffffffffffffffffffff168373ffffffffffffffffffffffffffffffffffffffff1614151515612fd0576040517f08c379a000000000000000000000000000000000000000000000000000000000815260040180806020018281038252600e8152602001807f6973206e6f74206164647265737300000000000000000000000000000000000081525060200191505060405180910390fd5b6000803373ffffffffffffffffffffffffffffffffffffffff1673ffffffffffffffffffffffffffffffffffffffff168152602001908152602001600020548211151515613086576040517f08c379a00000000000000000000000000000000000000000000000000000000081526004018080602001828103825260168152602001807f6e6f742073756666696369656e742062616c616e63650000000000000000000081525060200191505060405180910390fd5b6130d7826000803373ffffffffffffffffffffffffffffffffffffffff1673ffffffffffffffffffffffffffffffffffffffff1681526020019081526020016000205461494c90919063ffffffff16565b6000803373ffffffffffffffffffffffffffffffffffffffff1673ffffffffffffffffffffffffffffffffffffffff1681526020019081526020016000208190555061316a826000808673ffffffffffffffffffffffffffffffffffffffff1673ffffffffffffffffffffffffffffffffffffffff1681526020019081526020016000205461492e90919063ffffffff16565b6000808573ffffffffffffffffffffffffffffffffffffffff1673ffffffffffffffffffffffffffffffffffffffff168152602001908152602001600020819055508273ffffffffffffffffffffffffffffffffffffffff163373ffffffffffffffffffffffffffffffffffffffff167fddf252ad1be2c89b69c2b068fc378daa952ba7f163c4a11628f55a4df523b3ef846040518082815260200191505060405180910390a36001905092915050565b6000600360009054906101000a900473ffffffffffffffffffffffffffffffffffffffff1673ffffffffffffffffffffffffffffffffffffffff163373ffffffffffffffffffffffffffffffffffffffff1614151561327957600080fd5b81600073ffffffffffffffffffffffffffffffffffffffff168173ffffffffffffffffffffffffffffffffffffffff16141515156132b657600080fd5b600260009054906101000a900473ffffffffffffffffffffffffffffffffffffffff1673ffffffffffffffffffffffffffffffffffffffff168173ffffffffffffffffffffffffffffffffffffffff161415151561331357600080fd5b600360009054906101000a900473ffffffffffffffffffffffffffffffffffffffff1673ffffffffffffffffffffffffffffffffffffffff168173ffffffffffffffffffffffffffffffffffffffff161415151561337057600080fd5b600460009054906101000a900473ffffffffffffffffffffffffffffffffffffffff1673ffffffffffffffffffffffffffffffffffffffff168173ffffffffffffffffffffffffffffffffffffffff16141515156133cd57600080fd5b600560009054906101000a900473ffffffffffffffffffffffffffffffffffffffff1673ffffffffffffffffffffffffffffffffffffffff168173ffffffffffffffffffffffffffffffffffffffff161415151561342a57600080fd5b600660009054906101000a900473ffffffffffffffffffffffffffffffffffffffff1673ffffffffffffffffffffffffffffffffffffffff168173ffffffffffffffffffffffffffffffffffffffff161415151561348757600080fd5b600760009054906101000a900473ffffffffffffffffffffffffffffffffffffffff1673ffffffffffffffffffffffffffffffffffffffff168173ffffffffffffffffffffffffffffffffffffffff16141515156134e457600080fd5b600860009054906101000a900473ffffffffffffffffffffffffffffffffffffffff1673ffffffffffffffffffffffffffffffffffffffff168173ffffffffffffffffffffffffffffffffffffffff161415151561354157600080fd5b60011515600960008373ffffffffffffffffffffffffffffffffffffffff1673ffffffffffffffffffffffffffffffffffffffff16815260200190815260200160002060009054906101000a900460ff161515141515156135a157600080fd5b8273ffffffffffffffffffffffffffffffffffffffff167f13540620cd84b85d2384f88283c535336732580db73ee4acb1256af9fcde83dc60405160405180910390a26001600960008573ffffffffffffffffffffffffffffffffffffffff1673ffffffffffffffffffffffffffffffffffffffff16815260200190815260200160002060006101000a81548160ff0219169083151502179055506001915050919050565b600760009054906101000a900473ffffffffffffffffffffffffffffffffffffffff1681565b6000600460009054906101000a900473ffffffffffffffffffffffffffffffffffffffff1673ffffffffffffffffffffffffffffffffffffffff163373ffffffffffffffffffffffffffffffffffffffff16148061371a575060011515600960003373ffffffffffffffffffffffffffffffffffffffff1673ffffffffffffffffffffffffffffffffffffffff16815260200190815260200160002060009054906101000a900460ff161515145b151561372557600080fd5b61372d614870565b6001905090565b60006137c582600b60003373ffffffffffffffffffffffffffffffffffffffff1673ffffffffffffffffffffffffffffffffffffffff16815260200190815260200160002060008673ffffffffffffffffffffffffffffffffffffffff1673ffffffffffffffffffffffffffffffffffffffff1681526020019081526020016000205461492e90919063ffffffff16565b600b60003373ffffffffffffffffffffffffffffffffffffffff1673ffffffffffffffffffffffffffffffffffffffff16815260200190815260200160002060008573ffffffffffffffffffffffffffffffffffffffff1673ffffffffffffffffffffffffffffffffffffffff168152602001908152602001600020819055508273ffffffffffffffffffffffffffffffffffffffff163373ffffffffffffffffffffffffffffffffffffffff167f8c5be1e5ebec7d5bd14f71427d1e84f3dd0314c0f7b2291e5b200ac8c7c3b925600b60003373ffffffffffffffffffffffffffffffffffffffff1673ffffffffffffffffffffffffffffffffffffffff16815260200190815260200160002060008773ffffffffffffffffffffffffffffffffffffffff1673ffffffffffffffffffffffffffffffffffffffff168152602001908152602001600020546040518082815260200191505060405180910390a36001905092915050565b6000600b60008473ffffffffffffffffffffffffffffffffffffffff1673ffffffffffffffffffffffffffffffffffffffff16815260200190815260200160002060008373ffffffffffffffffffffffffffffffffffffffff1673ffffffffffffffffffffffffffffffffffffffff16815260200190815260200160002054905092915050565b6000600360009054906101000a900473ffffffffffffffffffffffffffffffffffffffff1673ffffffffffffffffffffffffffffffffffffffff163373ffffffffffffffffffffffffffffffffffffffff16141515613a1557600080fd5b81600073ffffffffffffffffffffffffffffffffffffffff168173ffffffffffffffffffffffffffffffffffffffff1614151515613a5257600080fd5b600260009054906101000a900473ffffffffffffffffffffffffffffffffffffffff1673ffffffffffffffffffffffffffffffffffffffff168173ffffffffffffffffffffffffffffffffffffffff1614151515613aaf57600080fd5b600360009054906101000a900473ffffffffffffffffffffffffffffffffffffffff1673ffffffffffffffffffffffffffffffffffffffff168173ffffffffffffffffffffffffffffffffffffffff1614151515613b0c57600080fd5b600460009054906101000a900473ffffffffffffffffffffffffffffffffffffffff1673ffffffffffffffffffffffffffffffffffffffff168173ffffffffffffffffffffffffffffffffffffffff1614151515613b6957600080fd5b600560009054906101000a900473ffffffffffffffffffffffffffffffffffffffff1673ffffffffffffffffffffffffffffffffffffffff168173ffffffffffffffffffffffffffffffffffffffff1614151515613bc657600080fd5b600660009054906101000a900473ffffffffffffffffffffffffffffffffffffffff1673ffffffffffffffffffffffffffffffffffffffff168173ffffffffffffffffffffffffffffffffffffffff1614151515613c2357600080fd5b600760009054906101000a900473ffffffffffffffffffffffffffffffffffffffff1673ffffffffffffffffffffffffffffffffffffffff168173ffffffffffffffffffffffffffffffffffffffff1614151515613c8057600080fd5b600860009054906101000a900473ffffffffffffffffffffffffffffffffffffffff1673ffffffffffffffffffffffffffffffffffffffff168173ffffffffffffffffffffffffffffffffffffffff1614151515613cdd57600080fd5b60011515600960008373ffffffffffffffffffffffffffffffffffffffff1673ffffffffffffffffffffffffffffffffffffffff16815260200190815260200160002060009054906101000a900460ff16151514151515613d3d57600080fd5b8273ffffffffffffffffffffffffffffffffffffffff16600560009054906101000a900473ffffffffffffffffffffffffffffffffffffffff1673ffffffffffffffffffffffffffffffffffffffff167f74eb1a447174ff1d9d2f8c27cd7470c5957208410ee8785e932b3d6c030cd4f660405160405180910390a382600560006101000a81548173ffffffffffffffffffffffffffffffffffffffff021916908373ffffffffffffffffffffffffffffffffffffffff1602179055506001915050919050565b6000600360009054906101000a900473ffffffffffffffffffffffffffffffffffffffff1673ffffffffffffffffffffffffffffffffffffffff163373ffffffffffffffffffffffffffffffffffffffff16141515613e6257600080fd5b81600073ffffffffffffffffffffffffffffffffffffffff168173ffffffffffffffffffffffffffffffffffffffff1614151515613e9f57600080fd5b600260009054906101000a900473ffffffffffffffffffffffffffffffffffffffff1673ffffffffffffffffffffffffffffffffffffffff168173ffffffffffffffffffffffffffffffffffffffff1614151515613efc57600080fd5b600360009054906101000a900473ffffffffffffffffffffffffffffffffffffffff1673ffffffffffffffffffffffffffffffffffffffff168173ffffffffffffffffffffffffffffffffffffffff1614151515613f5957600080fd5b600460009054906101000a900473ffffffffffffffffffffffffffffffffffffffff1673ffffffffffffffffffffffffffffffffffffffff168173ffffffffffffffffffffffffffffffffffffffff1614151515613fb657600080fd5b600560009054906101000a900473ffffffffffffffffffffffffffffffffffffffff1673ffffffffffffffffffffffffffffffffffffffff168173ffffffffffffffffffffffffffffffffffffffff161415151561401357600080fd5b600660009054906101000a900473ffffffffffffffffffffffffffffffffffffffff1673ffffffffffffffffffffffffffffffffffffffff168173ffffffffffffffffffffffffffffffffffffffff161415151561407057600080fd5b600760009054906101000a900473ffffffffffffffffffffffffffffffffffffffff1673ffffffffffffffffffffffffffffffffffffffff168173ffffffffffffffffffffffffffffffffffffffff16141515156140cd57600080fd5b600860009054906101000a900473ffffffffffffffffffffffffffffffffffffffff1673ffffffffffffffffffffffffffffffffffffffff168173ffffffffffffffffffffffffffffffffffffffff161415151561412a57600080fd5b60011515600960008373ffffffffffffffffffffffffffffffffffffffff1673ffffffffffffffffffffffffffffffffffffffff16815260200190815260200160002060009054906101000a900460ff1615151415151561418a57600080fd5b8273ffffffffffffffffffffffffffffffffffffffff16600460009054906101000a900473ffffffffffffffffffffffffffffffffffffffff1673ffffffffffffffffffffffffffffffffffffffff167f8be0079c531659141344cd1fd0a4f28419497f9722a3daafe3b4186f6b6457e060405160405180910390a382600460006101000a81548173ffffffffffffffffffffffffffffffffffffffff021916908373ffffffffffffffffffffffffffffffffffffffff1602179055506001915050919050565b6000600360009054906101000a900473ffffffffffffffffffffffffffffffffffffffff1673ffffffffffffffffffffffffffffffffffffffff163373ffffffffffffffffffffffffffffffffffffffff161415156142af57600080fd5b60011515600960008473ffffffffffffffffffffffffffffffffffffffff1673ffffffffffffffffffffffffffffffffffffffff16815260200190815260200160002060009054906101000a900460ff161515141515614377576040517f08c379a000000000000000000000000000000000000000000000000000000000815260040180806020018281038252600f8152602001807f6973206e6f74206f70657261746f72000000000000000000000000000000000081525060200191505060405180910390fd5b8173ffffffffffffffffffffffffffffffffffffffff167fcfae1a28603c1d5ccdd0d0f2b670794cc4f2c6bef60ee4888c0bd71b3b8dead860405160405180910390a26000600960008473ffffffffffffffffffffffffffffffffffffffff1673ffffffffffffffffffffffffffffffffffffffff16815260200190815260200160002060006101000a81548160ff02191690831515021790555060019050919050565b6000600360009054906101000a900473ffffffffffffffffffffffffffffffffffffffff1673ffffffffffffffffffffffffffffffffffffffff163373ffffffffffffffffffffffffffffffffffffffff1614151561447957600080fd5b81600073ffffffffffffffffffffffffffffffffffffffff168173ffffffffffffffffffffffffffffffffffffffff16141515156144b657600080fd5b600260009054906101000a900473ffffffffffffffffffffffffffffffffffffffff1673ffffffffffffffffffffffffffffffffffffffff168173ffffffffffffffffffffffffffffffffffffffff161415151561451357600080fd5b600360009054906101000a900473ffffffffffffffffffffffffffffffffffffffff1673ffffffffffffffffffffffffffffffffffffffff168173ffffffffffffffffffffffffffffffffffffffff161415151561457057600080fd5b600460009054906101000a900473ffffffffffffffffffffffffffffffffffffffff1673ffffffffffffffffffffffffffffffffffffffff168173ffffffffffffffffffffffffffffffffffffffff16141515156145cd57600080fd5b600560009054906101000a900473ffffffffffffffffffffffffffffffffffffffff1673ffffffffffffffffffffffffffffffffffffffff168173ffffffffffffffffffffffffffffffffffffffff161415151561462a57600080fd5b600660009054906101000a900473ffffffffffffffffffffffffffffffffffffffff1673ffffffffffffffffffffffffffffffffffffffff168173ffffffffffffffffffffffffffffffffffffffff161415151561468757600080fd5b600760009054906101000a900473ffffffffffffffffffffffffffffffffffffffff1673ffffffffffffffffffffffffffffffffffffffff168173ffffffffffffffffffffffffffffffffffffffff16141515156146e457600080fd5b600860009054906101000a900473ffffffffffffffffffffffffffffffffffffffff1673ffffffffffffffffffffffffffffffffffffffff168173ffffffffffffffffffffffffffffffffffffffff161415151561474157600080fd5b60011515600960008373ffffffffffffffffffffffffffffffffffffffff1673ffffffffffffffffffffffffffffffffffffffff16815260200190815260200160002060009054906101000a900460ff161515141515156147a157600080fd5b6147a9614870565b8273ffffffffffffffffffffffffffffffffffffffff16600760009054906101000a900473ffffffffffffffffffffffffffffffffffffffff1673ffffffffffffffffffffffffffffffffffffffff167f3bc73095b96f19cf7ed2dbd62e6d927101669eea735566a676ba1ed6db3dff7660405160405180910390a382600760006101000a81548173ffffffffffffffffffffffffffffffffffffffff021916908373ffffffffffffffffffffffffffffffffffffffff1602179055506001915050919050565b6000600a60006101000a81548160ff0219169083151502179055506000600a60016101000a81548160ff0219169083151502179055506000600a60026101000a81548160ff0219169083151502179055507fb415c45be42cfd6b48bb8d12979c0ad78d8b2b5c59dc5cf2099aaa786cfc587c3342604051808373ffffffffffffffffffffffffffffffffffffffff1673ffffffffffffffffffffffffffffffffffffffff1681526020018281526020019250505060405180910390a1565b600080828401905083811015151561494257fe5b8091505092915050565b600082821115151561495a57fe5b8183039050929150505600a165627a7a72305820aa6166d366a2a50f6647a8ecafa21d4634dbdf5162f20a4dd6acd1ab900035f30029",
  "source": "pragma solidity ^0.4.24;\n\nlibrary SafeMath {\n    \n    function mul(uint256 a, uint256 b) internal pure returns (uint256) {\n        if (a == 0) {\n            return 0;\n        }\n        uint256 c = a * b;\n        assert(c / a == b);\n        return c;\n    }\n\n    function div(uint256 a, uint256 b) internal pure returns (uint256) {\n        return a / b;\n    }\n\n    function sub(uint256 a, uint256 b) internal pure returns (uint256) {\n        assert(b <= a);\n        return a - b;\n    }\n\n    function add(uint256 a, uint256 b) internal pure returns (uint256) {\n        uint256 c = a + b;\n        assert(c >= a);\n        return c;\n    }\n}\n\ncontract ERC20Basic {\n    function totalSupply() public view returns (uint256);\n    function balanceOf(address who) public view returns (uint256);\n    function transfer(address to, uint256 value) public returns (bool);\n    event Transfer(address indexed from, address indexed to, uint256 value);\n}\n\ncontract ERC20 is ERC20Basic {\n    function allowance(address owner, address spender) public view returns (uint256);\n    function transferFrom(address from, address to, uint256 value) public returns (bool);\n    function approve(address spender, uint256 value) public returns (bool); \n    event Approval(address indexed owner, address indexed spender, uint256 value);\n}\n\ncontract BasicToken is ERC20Basic {\n    using SafeMath for uint256;\n\n    mapping(address => uint256) balances;\n\n    uint256 totalSupply_ ;\n\n    function totalSupply() public view returns (uint256) {\n        return totalSupply_;\n    }\n\n    function transfer(address _to, uint256 _value) public returns (bool) {\n        require(_to != address(0), \"is not address\");\n        require(_value <= balances[msg.sender], \"not sufficient balance\");\n\t\t\n\n        balances[msg.sender] = balances[msg.sender].sub(_value);\n        balances[_to] = balances[_to].add(_value);\n    \n        emit Transfer(msg.sender, _to, _value);\n        return true;\n    }\n\n    function balanceOf(address _owner) public view returns (uint256) {\n        return balances[_owner];\n    }\n}\n\ncontract Ownable {\n    \n\taddress public hidden_supervisor;\n    address public supervisor;\n\taddress public owner;\n\taddress public banker;\n\taddress public director1;                 \n    address public director2;\n    address public director3;\n\t\n    mapping(address => bool) public operator;\n    bool public director1_signature;\n    bool public director2_signature;\n    bool public director3_signature;\n    \n\n    event HiddenSupervisorTransferred(address indexed previousHiddenSupervisor, address indexed newHiddenSupervisor);\n    event SupervisorTransferred(address indexed previousSupervisor, address indexed newSupervisor);\n    event OwnershipTransferred(address indexed previousOwner, address indexed newOwner);\n    event BankerTransferred(address indexed previousBanker, address indexed newBanker);\n    event Director1Transferred(address indexed previousDirector1, address indexed newDirector1);\n    event Director2Transferred(address indexed previousDirector2, address indexed newDirector2);\n    event Director3Transferred(address indexed previousDirector3, address indexed newDirector3);\n    event OperatorSetting(address indexed _newOperator);\n\tevent OperatorDisable(address indexed _newOperator);\n\tevent ClearedCLevelSignature(address _from, uint256 _timestamp);\n    constructor() public {\n\t\t\n        hidden_supervisor = msg.sender;\n\t\tsupervisor = msg.sender;\n        owner = msg.sender;\n        banker = msg.sender;\n\t\tdirector1 = msg.sender;\n        director2 = msg.sender;\n        director3 = msg.sender;\n        ClearCLevelSignature();\n    }\n\n    modifier onlyHiddenSupervisor() { require(msg.sender == hidden_supervisor); _; }\n    modifier onlySupervisor() { require(msg.sender == supervisor); _; }\n    modifier onlyOwner() { require(msg.sender == owner); _; }\n    modifier onlyBanker() { require(msg.sender == banker); _; }\n    modifier CheckOperator { require(operator[msg.sender] != true); _; }\n    modifier onlyOwnerOrOperator() { require(msg.sender == owner || operator[msg.sender] == true); _; }\n    modifier onlyDirector1() { require(msg.sender == director1); _; }\n    modifier onlyDirector2() { require(msg.sender == director2); _; }\n    modifier onlyDirector3() { require(msg.sender == director3); _; }\n    modifier AllCLevelSignature() { require((director1_signature && director2_signature)||(director1_signature && director3_signature)||(director2_signature && director3_signature)); _; }\n    \n    modifier onlyNotGrameAdmin(address _from) {\n\n        require(_from != address(0));\n        require(_from != hidden_supervisor);\n        require(_from != supervisor);\n        require(_from != owner);\n        require(_from != banker);\n        require(_from != director1);\n        require(_from != director2);\n        require(_from != director3);\n        require(operator[_from] != true);\n        _;\n    } \n    \n    function director1Signature() external onlyDirector1 returns(bool) { director1_signature = true; return true;}\n    function director2Signature() external onlyDirector2 returns(bool) { director2_signature = true; return true;}\n    function director3Signature() external onlyDirector3 returns(bool) { director3_signature = true; return true;}\n    \n\tfunction transferHiddenSupervisor(address _newHiddenSupervisor) external \n    onlyHiddenSupervisor onlyNotGrameAdmin(_newHiddenSupervisor) \n    returns(bool) {\n\t\t\n        emit HiddenSupervisorTransferred(hidden_supervisor, _newHiddenSupervisor);\n\t\t\n        hidden_supervisor = _newHiddenSupervisor;\n\n        return true;\n    }\n\t\n\t\n    \n    function transferSupervisor(address _newSupervisor) external \n    onlyHiddenSupervisor onlyNotGrameAdmin(_newSupervisor) \n    returns (bool) {\n\n        emit SupervisorTransferred(supervisor, _newSupervisor);\n        \n        supervisor = _newSupervisor;\n        \n        return true;\n    }\n    \n    function transferBankOwner(address _newBanker) external \n    onlySupervisor onlyNotGrameAdmin(_newBanker) \n    returns (bool) {\n        \n        emit BankerTransferred(banker, _newBanker);\n        \n        banker = _newBanker;\n        \n        return true;\n    }\n\n    function transferOwnership(address _newOwner) external \n    onlySupervisor onlyNotGrameAdmin(_newOwner)\n    returns (bool) {\n\t\t\n        emit OwnershipTransferred(owner, _newOwner);\n        owner = _newOwner;\n\n        return true;\n    }\n  \n\n    function transferDirector1(address _newDirector1) external \n    onlySupervisor onlyNotGrameAdmin(_newDirector1) \n    returns (bool) {\n\t\t\n        ClearCLevelSignature();\n        \n        emit Director1Transferred(director1,_newDirector1);\n        \n        director1 = _newDirector1;\n\n        return true;\n    }\n\n    function transferDirector2(address _newDirector2) external \n    onlySupervisor onlyNotGrameAdmin(_newDirector2) \n    returns (bool) {\n\t\t\n        ClearCLevelSignature();\n        \n        emit Director2Transferred(director2,_newDirector2);\n        \n        director2 = _newDirector2;\n\n        return true;\n    }\n\n    function transferDirector3(address _newDirector3) external \n    onlySupervisor onlyNotGrameAdmin(_newDirector3)\n    returns (bool) {\n\t\t\n\t\tClearCLevelSignature();\n        \n        emit Director3Transferred(director3, _newDirector3);\n        \n        director3 = _newDirector3;\n\n        return true;\n    }\n\n    function SignatureInvalidity() external onlyOwnerOrOperator returns(bool) {\n        ClearCLevelSignature();\n\n        return true;\n    }\n\n    function ClearCLevelSignature() internal {\n        director1_signature = false;\n        director2_signature = false;\n        director3_signature = false;\n\n        emit ClearedCLevelSignature(msg.sender, block.timestamp);\n    }\n    \n    function setOperator(address _newOperator) external \n    onlySupervisor onlyNotGrameAdmin(_newOperator) \n    returns (bool) {\n        \n        emit OperatorSetting(_newOperator);\n        operator[_newOperator] = true;\n\n        return true;\t\n    }\n\n    function disableOperator(address _toDeleteOperator) external \n    onlySupervisor returns (bool) {\n        \n        require(operator[_toDeleteOperator] == true,\"is not operator\");\n        \n        emit OperatorDisable(_toDeleteOperator);\n        \n        operator[_toDeleteOperator] = false;\n\n        return true;\n    } \n}\n\ncontract BlackList is Ownable {\n\n    event Lock(address indexed LockedAddress);\n    event Unlock(address indexed UnLockedAddress);\n\n    mapping( address => bool ) public blackList;\n\n    modifier CheckBlackList { \n      require(blackList[msg.sender] != true); \n      _; \n    }\n    \n    //\n    function setLockAddress(address _lockAddress) external onlyOwnerOrOperator returns (bool) {\n        require(_lockAddress != address(0));\n        require(_lockAddress != owner);\n        require(blackList[_lockAddress] != true);\n        \n        blackList[_lockAddress] = true;\n        \n        emit Lock(_lockAddress);\n\n        return true;\n    }\n\n    function unLockAddress(address _unlockAddress) external onlyOwnerOrOperator returns (bool) {\n        require(blackList[_unlockAddress] != false);\n        \n        blackList[_unlockAddress] = false;\n        \n        emit Unlock(_unlockAddress);\n\n        return true;\n    }\n}\n// ----------------------------------------------------------------------------\n// @title Pausable\n// @dev Base contract which allows children to implement an emergency stop mechanism.\n// ----------------------------------------------------------------------------\ncontract Pausable is Ownable {\n    event Pause();\n    event Unpause();\n\n    bool public paused = false;\n\n    modifier whenNotPaused() { require(!paused); _; }\n    modifier whenPaused() { require(paused); _; }\n\n    function pause() public \n    onlyOwnerOrOperator whenNotPaused \n    returns (bool) {\n        \n        emit Pause();\n        paused = true;\n\n        return true;\n    }\n\n    function unpause() public \n    onlyOwnerOrOperator whenPaused  \n    returns (bool) {\n        \n        emit Unpause();\n        paused = false;\n\n        return true;\n    }\n}\n\ncontract StandardToken is ERC20, BasicToken, Ownable {\n  \n    mapping (address => mapping (address => uint256)) internal allowed;\n\n    function transferFrom(address _from, address _to, uint256 _value) public returns (bool) {\n        require(_to != address(0));\n        require(_to != supervisor);\n        require(_to != hidden_supervisor);\n        require(_from != address(0));\n        require(_from != supervisor);\n        require(_from != hidden_supervisor);\n        \n        require(_value <= balances[_from]);\n        require(_value <= allowed[_from][msg.sender]);\n\n        balances[_from] = balances[_from].sub(_value);\n        balances[_to] = balances[_to].add(_value);\n        allowed[_from][msg.sender] = allowed[_from][msg.sender].sub(_value);\n    \n        emit Transfer(_from, _to, _value);\n    \n        return true;\n    }\n\n    function approve(address _spender, uint256 _value) public returns (bool) {\n        allowed[msg.sender][_spender] = _value;    \n        emit Approval(msg.sender, _spender, _value);\n    \n        return true;\n    }\n\n    function allowance(address _owner, address _spender) public view returns (uint256) {\n        return allowed[_owner][_spender];\n    }\n\n    function increaseApproval(address _spender, uint256 _addedValue) public returns (bool) {\n        \n        allowed[msg.sender][_spender] = (allowed[msg.sender][_spender].add(_addedValue));\n\t\t\n        emit Approval(msg.sender, _spender, allowed[msg.sender][_spender]);\n    \n        return true;\n    }\n\n    function decreaseApproval(address _spender, uint256 _subtractedValue) public returns (bool) {\n        uint256 oldValue = allowed[msg.sender][_spender];\n    \n        if (_subtractedValue > oldValue) {\n            allowed[msg.sender][_spender] = 0;\n        } else {\n            allowed[msg.sender][_spender] = oldValue.sub(_subtractedValue);\n        }\n    \n        emit Approval(msg.sender, _spender, allowed[msg.sender][_spender]);\n        return true;\n    }\n}\n\ncontract MultiTransferToken is StandardToken {\n    \n    function multiTransfer(address[] _to, uint256[] _amount) public onlyOwner returns (bool) {\n        \n        require(_to.length == _amount.length);\n        require(msg.sender != supervisor);\n        require(msg.sender != hidden_supervisor);\n\t\t\n\t\t\n        uint256 ui;\n        uint256 amountSum = 0;\n    \n        for (ui = 0; ui < _to.length; ui++) {\n            require(_to[ui] != address(0));\n            require(_to[ui] != supervisor);\n            require(_to[ui] != hidden_supervisor);\n\n            amountSum = amountSum.add(_amount[ui]);\n        }\n\n        require(amountSum <= balances[msg.sender]);\n\n        for (ui = 0; ui < _to.length; ui++) {\n            balances[msg.sender] = balances[msg.sender].sub(_amount[ui]);\n            balances[_to[ui]] = balances[_to[ui]].add(_amount[ui]);\n        \n            emit Transfer(msg.sender, _to[ui], _amount[ui]);\n        }\n    \n        return true;\n    }\n    \n}\n\ncontract BankerTransferToken is StandardToken {\n\n    uint public unlockDate;\n    event SetSendTime(uint toAddTime, uint resultTime, address _who);\n\n\tfunction setSendTime(uint _value) external onlyBanker returns(bool) {\n\t    ClearCLevelSignature();\n        unlockDate  = now + _value;\n\n        emit SetSendTime(_value, unlockDate, msg.sender);\n\n        return true;\n    }\n    function getSendTime() external onlyBanker view returns (uint){\n        return unlockDate;\n    }\n\n    function transferBanker(address _to, uint256 _value) external AllCLevelSignature returns (bool) {\n\t      \n        require(_to == owner);\n        require(now <= unlockDate);\n        require(msg.sender != supervisor);\n        require(msg.sender != hidden_supervisor);\n        require(_to != supervisor);\n        require(_to != hidden_supervisor);\n        require(_value <= balances[msg.sender]);\n\n        ClearCLevelSignature();\n        balances[msg.sender] = balances[msg.sender].sub(_value);\n        balances[_to] = balances[_to].add(_value);\n        unlockDate = now;\n        emit Transfer(msg.sender, _to, _value);\n        \n        return true;\n    }\n}\n\ncontract BurnableToken is StandardToken {\n\n    event BurnAdminAmount(address indexed burner, uint256 value);\n    event BurnHackerAmount(address indexed hacker, uint256 hackingamount, string reason);\n\n    function burnAdminAmount(uint256 _value) public \n    onlyOwner returns (bool) {\n        require(_value <= balances[msg.sender]);\n\n        balances[msg.sender] = balances[msg.sender].sub(_value);\n        totalSupply_ = totalSupply_.sub(_value);\n    \n        emit BurnAdminAmount(msg.sender, _value);\n        emit Transfer(msg.sender, address(0), _value);\n\n        return true;\n    }\n    \n    function burnHackingAmount(address _hackerAddress, string _reason) public onlyOwner AllCLevelSignature  returns (bool) {\n        ClearCLevelSignature();\n\n        uint256 hackerAmount =  balances[_hackerAddress];\n        \n        require(hackerAmount > 0);\n\n        balances[_hackerAddress] = balances[_hackerAddress].sub(hackerAmount);\n        totalSupply_ = totalSupply_.sub(hackerAmount);\n    \n        emit BurnHackerAmount(_hackerAddress, hackerAmount, _reason);\n        emit Transfer(_hackerAddress, address(0), hackerAmount);\n\n        return true;\n    }\n}\n\ncontract PausableToken is StandardToken, Pausable, BlackList {\n    event LockerSetting(address indexed _address, uint256 amount);\n    event Recall(address indexed _address, uint256 amount);\n    mapping(address => uint256) public locker;\n    \n    function transfer(address _to, uint256 _value) public whenNotPaused CheckBlackList returns (bool) {\n        require(_to != supervisor);\n        require(_to != hidden_supervisor);\n        require(msg.sender != banker);\n        require(msg.sender != supervisor);\n        require(msg.sender != hidden_supervisor);\n\n        require(balanceOf(msg.sender) - _value >= lockerOf(msg.sender));\n        \n        return super.transfer(_to, _value);\n    }\n\n    function transferFrom(address _from, address _to, uint256 _value) public whenNotPaused CheckBlackList returns (bool) {\n\t\t    require(_from != banker);\n        return super.transferFrom(_from, _to, _value);\n    }\n\n    function approve(address _spender, uint256 _value) public whenNotPaused CheckBlackList returns (bool) {\n        require(msg.sender != banker);\n        require(balanceOf(msg.sender) - _value >= lockerOf(msg.sender));\n        return super.approve(_spender, _value);\n    }\n\n    function increaseApproval(address _spender, uint _addedValue) public whenNotPaused CheckBlackList returns (bool success) {\n\t\t    require(msg.sender != banker);\n        return super.increaseApproval(_spender, _addedValue);\n    }\n\n    function decreaseApproval(address _spender, uint _subtractedValue) public whenNotPaused CheckBlackList returns (bool success) {\n\t\t    require(msg.sender != banker);\n        return super.decreaseApproval(_spender, _subtractedValue);\n    }\n    \n    function lockerOf(address _address) public view returns (uint256 _locker) {\n\t\t    return locker[_address];\n\t  }\n\n    function locker() public view returns (uint256 _locker) {\n        return locker[msg.sender];\n    }\n\t\n    function setLock(address _address, uint256 _value) public onlyOwner \n    returns (bool) {\n        require(_value <= totalSupply_, \"value is greater than totalSupply_\");\n        require(_address != address(0), \"is not address\");\n\n        locker[_address] = _value;\n        emit LockerSetting(_address, _value);\n\n        return true;\n\t  }\n\t\n\tfunction recall(address _from, uint256 _amount) public onlyOwner \n    returns (bool) {\n        require(_from != address(0));\n        require(_amount > 0);\n        \n        uint256 currentLocker = lockerOf(_from);\n        uint256 currentBalance = balanceOf(_from);\n        \n        require(currentLocker >= _amount, \"is not sufficient currentLocker\");\n        require(currentBalance >= _amount, \"is not sufficient currentBalance\");\n        \n        uint256 newLock = currentLocker - _amount;\n        locker[_from] = newLock;\n        emit LockerSetting(_from, newLock);\n        \n        balances[_from] = balances[_from].sub(_amount);\n        balances[owner] = balances[owner].add(_amount);\n        emit Transfer(_from, owner, _amount);\n        emit Recall(_from, _amount);\n\n        return true;\n      }\n\n      function multiLock(address[] _to, uint256[] _amount) public onlyOwner returns (bool) {\n          \n          require(_to.length == _amount.length, \"is not equal length\");\n          \n          uint256 ui;\n          \n          for (ui = 0; ui < _to.length; ui++) {\n            require(_amount[ui] <= totalSupply_, \"value is greater than totalSupply_\");\n            require(_to[ui] != address(0), \"is not address\");\n            locker[_to[ui]] = _amount[ui];\n            emit LockerSetting(_to[ui], _amount[ui]);\n          }\n          \n          return true;\n      }\n}\n\ncontract DetailedERC20 is ERC20 {\n\tstring public name;\n\tstring public symbol;\n\tuint256 public decimals;\n\t\n\tconstructor(string _name, string _symbol, uint256 _decimals) public {\n\t\tname = _name;\n\t\tsymbol = _symbol;\n\t\tdecimals = _decimals;\n\t}\n}\n\ncontract GrameCoin is PausableToken, DetailedERC20, BankerTransferToken, BurnableToken, MultiTransferToken {\n    string public constant name = \"Grame\";\n    string public constant symbol = \"GRM\";\n    uint256 public constant decimals = 18;\n    \n    uint256 public constant TOTAL_SUPPLY = (1e10) * (10 ** uint256(decimals)); \n    \n    \n    constructor() DetailedERC20(name, symbol, decimals) public {\n\t\ttotalSupply_ = TOTAL_SUPPLY;\n\t\tbalances[owner] = totalSupply_;\n\t\temit Transfer(address(0x0), owner, totalSupply_);\n\t}\n\t\n\tfunction() public payable {\n\t   revert();\n\t }\n}",
  "sourcePath": "/Users/berk/asdf/workzone/grame/contracts/GrameCoin.sol",
  "compiler": {
    "name": "solc",
    "version": "0.4.24+commit.e67f0147.Emscripten.clang"
  },
  "schemaVersion": "3.0.6",
  "updatedAt": "2019-08-15T05:21:19.164Z",
  "devdoc": {
    "methods": {}
  },
  "userdoc": {
    "methods": {}
  }
}